:060000000A128A11122809
:10000800FE00030EF8000408F9000A08FA0083123B
:1000180003137F08FB000A128A1131280A128A1179
:100028001528F001F101FC01FD0183132030840043
:1000380051300A128A11A3210A128A116930FD006F
:100048000130FE002430FF00513084000A128A116A
:100058006C2183010A128A119D280A128A117921BA
:100068000A128A110B1D5E280B11643083120313C8
:1000780081000130C6070318C70A0030C7070715F3
:100088000000831203130711E830F2000330F30075
:100098004708F5004608F4000A128A116B200A1274
:1000A8008A1172087304031D5E28701483120313E7
:1000B800C601C7017B0883120313FF007A088A0070
:1000C80079088400780E8300FE0E7E0E09007208FF
:1000D800730403199828F701F70AF31B7F280130E6
:1000E8000310F20DF30DFF3E031D74280130F600D6
:1000F8007608F707712873087502031D85287208AA
:100108007402031C8D287208F4027308031CF5039B
:10011800F50201300310F30CF20CFF3E031D8E288C
:100128000130F702031D7F287508F3007408F200F8
:1001380008000A128A11C5200A128A110A128A11A5
:1001480098210A128A110A128A11EA200A128A11BF
:100158000A128A113C210A128A110D3083120313E4
:10016800EC006C08ED006D080A128A1189210A1248
:100178008A11701CBD280130831203138606701083
:10018800BD28831603138717BF3083120313E900B2
:100198006908831603138705181514309900181376
:1001A80083120313181383160313181283120313ED
:1001B80098171816831603130C128C1698168312A8
:1001C8000313D001FD01CE01CD01080089300A12C8
:1001D8008A1107210A128A1100300A128A1107218E
:1001E8000A128A11C8300A128A1107210A128A11C2
:1001F8007F300A128A1107210A128A11E1300A1285
:100208008A110721080083120313EA007D08013EC2
:100218000F39500603190A298B136A08E9007D086B
:10022800303E84006908831380007D08013E0F3941
:10023800E9006908FD00831603130C168B170800E4
:100248003C3400342E3400342B340034273400344A
:1002580035340034173400341B3400341E34003471
:100268003C3400342B340034353400341B3400342F
:100278008316031386014030940020308312031341
:100288009400D030831603138700033083120313BE
:10029800870004308316031381008B168B17080020
:1002A80001308A000408840A820700345334743405
:1002B8006534703473343A340034733474346534C8
:1002C800703473343A3400347E088A007F08820020
:1002D80068210A128A118000840A04087D0603191D
:1002E8000034FF0A0319FE0A6C2983120313981CB1
:1002F800812918121816031008004D084E06031D10
:100308008729031008000314080083120313EB0065
:10031800EA018C116B0893008C1D90291308E900E1
:100328006908EA008C11080080300A128A11072136
:100338000A128A1184300A128A11072108006400FF
:0E0348008001840A0406031900340406A42967
:02400E003A3F37
:00000001FF
