:060000000A128A11122809
:10000800FE00030EF7000408F8000A08F90083123E
:1000180003137F08FA000A128A1123280A128A1188
:100028001528FD01FB01FC018313203084004530B5
:100038000A128A11A32183010A128A1192298C1E9D
:100048003B281A08F6007B08203E840076088313B4
:1000580080007B08013E0F39F6007608C30043088C
:10006800420603193B284308F6007608FB000C1EDD
:100078005828831603130C1E5828831203134408A8
:10008800303E84008313000899000130F60076089A
:10009800C4070F30F6007608C40544087C06031D23
:1000A8005828831603130C120B1D7A280B11643081
:1000B800831281000130C0070318C10A0030C1074C
:1000C800F430F0000130F1004108F3004008F2007C
:1000D8000A128A11DD200A128A1170087104031DA0
:1000E8007A287D1483120313C001C1017A08831290
:1000F8000313FF0079088A0078088400770E8300CC
:10010800FE0E7E0E090089300A128A1175210A1224
:100118008A11213083120313C8007630C700C70B39
:100128009328C80B9328000000300A128A11752101
:100138000A128A11213083120313C8007630C700CF
:10014800C70BA428C80BA4280000C8300A128A11BB
:1001580075210A128A11213083120313C8007630E0
:10016800C700C70BB528C80BB52800007F300A1296
:100178008A1175210A128A11213083120313C800CB
:100188007630C700C70BC628C80BC6280000FF304A
:100198000A128A1175210A128A1121308312031357
:1001A800C8007630C700C70BD728C80BD72800006F
:1001B80008007008710403190A29F501F50AF11BF2
:1001C800F12801300310F00DF10DFF3E031DE62864
:1001D8000130F4007408F507E32871087302031D61
:1001E800F72870087202031CFF287008F2027108D1
:1001F800031CF303F30201300310F10CF00CFF3E73
:10020800031D00290130F502031DF1287308F100D0
:100218007208F0000800831603138717BF30831293
:100228000313C500450883160313870518151430F2
:100238009900181383120313181383160313181243
:100248008312031398171816831603130C128C16AF
:1002580098160B1783120313C401FC01C201FB019A
:10026800080080300A128A1175210A128A11213079
:1002780083120313C8007630C700C70B4129C80B87
:100288004129000084300A128A1175210A128A1144
:10029800213083120313C8007630C700C70B5229D8
:1002A800C80B5229000008007F3083120313CB00CB
:1002B800D430CA00AE30C900C90B6029CA0B602906
:1002C800CB0B602967290A128A110F210A128A1199
:1002D8000B178B170A128A1135218316031386010F
:1002E800080083120313C6007C08013E0F39440638
:1002F800031978298B134608C5007C08303E840012
:100308004508831380007C08013E0F39C500450865
:10031800FC00831603130C168B1708000A128A11A7
:1003280058210A128A110A128A1187200A128A1180
:100338007D1C9C2901308312031386069C296400C6
:0E0348008001840A0406031900340406A42967
:02400E003A3F37
:00000001FF
