:060000000A128A11122809
:10000800FE00030EF3000408F4000A08F50083124A
:1000180003137F08F6000A128A15D02D0A128A11D6
:100028001528F001F101F701F801F901831603130E
:10003800D101D201D301D401D501D601D701D8010C
:10004800D9018313D130FD000D30FE005930FF0077
:10005800B93084000A128A15F82483010A128A1119
:10006800272B831203135A08E0005B08E1005C08A1
:10007800E2000310610D620DE3006308E6005D080D
:10008800E0005E08E1005F08E2000310610D620D08
:10009800E3006308E500660803195E286508660240
:1000A800031865286603FF3A6507E0001930600207
:1000B800031C65285D08DA005E08DB005F08DC00C9
:1000C8000800650803190800660865020318742803
:1000D8006503FF3A6607E00019306002031808005C
:1000E8000630E0006008E400DC1BE417DF1B64173F
:1000F800DB17FF30DA05FF30DB050030DC05DE17E3
:10010800FF30DD05FF30DE050030DF0565086602DB
:100118000318B42801300310DD0DDE0DDF0DFF3E9E
:10012800031D8F280130E502650866060319AF280C
:100138000130E402640807390319AF288E2801301A
:100148000310DC0CDB0CDA0CFF3E031DA428013085
:10015800E0006008E607660865060319DD28A3289D
:10016800660865020318DD2801300310DA0DDB0D7F
:10017800DC0DFF3E031DB9280130E602650866065E
:100188000319D9280130E402640807390319D9286A
:10019800B82801300310DF0CDE0CDD0CFF3E031D18
:1001A800CE280130E0006008E50766086506031DF3
:1001B800CD28E41FEF28FF30DA06FF30DB06FF30DA
:1001C800DC060130DA07003003180130DB070030A5
:1001D80003180130DC07641F0129FF30DD06FF30FA
:1001E800DE06FF30DF060130DD070030031801307E
:1001F800DE07003003180130DF07E4015A08DD0785
:100208005B08031103185B0A031DDE075C08031172
:1002180003185C0A031DDF07DF1F2429FF30DD06F2
:10022800FF30DE06FF30DF060130DD07003003183F
:100238000130DE07003003180130DF07E401E40A6B
:100248005D08A0005E08A1005F08A2006608E00043
:100258006008A3006408E1006108A4000A128A117A
:100268004B27831203132008DA002108DB00220839
:10027800DC0008000A128A15E5240A128A11831282
:100288000313210883160313B000831203132008F5
:1002980083160313AF00300883120313A9008316D3
:1002A80003132F0883120313A8000A128A15F525D1
:1002B8000A128A11831203132808B3002908B4000C
:1002C8002A08B5000030B6008030B7003F30B800CB
:1002D8000A128A11CF240A128A11831203133308CF
:1002E80083160313A0008312031334088316031321
:1002F800A10083120313350883160313A20062308A
:10030800A3009130A4004630A5001430A600D730D1
:10031800A700BF30A800260883120313DA0083164B
:100328000313270883120313DB008316031328081B
:1003380083120313DC0083160313230883120313A9
:10034800A80083160313240883120313A900831635
:100358000313250883120313AA0083160313200826
:1003680083120313AB0083160313210883120313AC
:10037800AC0083160313220883120313AD000A127C
:100388008A11FC230A128A11831203132808DD003C
:100398002908DE002A08DF000A128A1135200A120D
:1003A8008A11831203135A0883160313A9008312B0
:1003B80003135B0883160313AA00831203135C0854
:1003C80083160313AB00290883120313E70083166F
:1003D80003132A0883120313E800831603132B0858
:1003E80083120313E9000A128A15A0270A128A1138
:1003F80083120313670883160313AC0083120313D5
:10040800680883160313AD00831203136908831663
:100418000313AE002C0883120313C30083160313BF
:100428002D0883120313C400831603132E088312A6
:100438000313C5000A128A11BD2683120313440848
:1004480083160313B200831203134308831603139E
:10045800B100320883120313EE0083160313310828
:1004680083120313ED000800831203136D08A00024
:100478006E08A1006F08A2000030A3000030A4009D
:100488000030A5000A128A1541270A128A1103189A
:10049800CD2A831203136D08B0006E08B1006F08EF
:1004A800B2000A128A15B1240A128A1183120313A0
:1004B8003008B6003108B7003208B8000030B30081
:1004C8007030B4004030B5000A128A11CF240A12E5
:1004D8008A1183120313330883160313A1008312AE
:1004E8000313340883160313A20083120313350879
:1004F80083160313A300210883120313E70083164E
:100508000313220883120313E80083160313230836
:1005180083120313E9000A128A15A0270A128A1106
:1005280083120313670883160313A40083120313AB
:10053800680883160313A50083120313690883163A
:100548000313A600240883120313C300831603139E
:10055800250883120313C400831603132608831285
:100568000313C5000A128A11BD260A128A118312C2
:100578000313430883160313A0002008AA0083125C
:100588000313B101831603132A080A128A112626B7
:100598000800831203136D08B6006E08B7006F08D1
:1005A800B8000030B3007030B4004030B5000A1213
:1005B8008A11CF240A128A11831203133308E70021
:1005C8003408E8003508E9000A128A15A0270A123B
:1005D8008A1183120313670883160313A700831273
:1005E8000313680883160313A8008312031369080A
:1005F80083160313A900270883120313C300831665
:100608000313280883120313C4008316031329084D
:1006180083120313C5000A128A11BD260A128A1111
:1006280083120313430883160313A0002008AA00AB
:1006380083120313B101B10A831603132A080A129D
:100648008A11262608000A128A1571250A128A11AB
:100658000A128A15C8240A128A11701CB02B70104D
:100668000A128A15E5240A128A1183120313210833
:1006780083160313B600831203132008831603138B
:10068800B5000A128A113E210A128A118312031335
:100698006E0883160313B800831203136D088316BC
:1006A8000313B700711DAB2B00300A128A15A8245A
:1006B8000A128A110F300A128A158D250A128A1118
:1006C80083160313360883120313A7008316031334
:1006D800350883120313A600043083160313B300EE
:1006E800330883120313A800A9010A128A11872567
:1006F8000A128A1109300A128A15A8240A128A11C4
:1007080014300A128A158D250A128A1183160313CA
:10071800380883120313A7008316031337088312BC
:100728000313A600033083160313B30033088312A0
:100738000313A800A9010A128A1187250A128A112F
:1007480017300A128A158D250A128A1171110A1298
:100758008A15C8240A128A11701DC12B831203132B
:10076800B101B10A01300A128A1126260A128A1129
:1007780010308312031386067011701ECD2B83125E
:100788000313B10101300A128A1126260A128A11AE
:100798007012701FE92BF01CD92B00308312031341
:1007A800ED003430EE00C330E02B00308312031329
:1007B800ED003430EE004330EF000A128A1138227F
:1007C8000A128A110230F0067013711CF02B1030D7
:1007D8008312031386067110823083160313B40044
:1007E800DD30B300B30BF62BB40BF62BFB2B312B00
:1007F800831203132808AE002908AF002A08B000A6
:1008080003102F0D300DB1003108B2003208031D5E
:10081800142C0030A8000030A9000030AA000800FD
:100828002B08AE002C08AF002D08B00003102F0DC8
:10083800300DB1003108B7003708031D2A2C0030ED
:10084800A8000030A9000030AA00080037087B3E45
:10085800AE002E08B2072808AE002908AF002A0803
:10086800B00010300310B00CAF0CAE0CFF3E031DEF
:10087800362C2E08B1003108B7002B08AE002C0822
:10088800AF002D08B00010300310B00CAF0CAE0C48
:10089800FF3E031D482C2E08B1003108B7068030F2
:1008A800AE002E08B705A917AC17FF30AB05FF300F
:1008B800AC050030AD050030B3000030B4000030A6
:1008C800B5000730AE002E08B600281C792C2B087E
:1008D800B3072C08031103182C0A031DB4072D08AD
:1008E800031103182D0A031DB50701300310AA0CC4
:1008F800A90CA80CFF3E031D7A2C01300310AB0D88
:10090800AC0DAD0DFF3E031D822C0130B602031D58
:10091800692C0930AE002E08B600281CA12C2B0823
:10092800B3072C08031103182C0A031DB4072D085C
:10093800031103182D0A031DB50701300310AA0C73
:10094800A90CA80CFF3E031DA22C01300310B50C06
:10095800B40CB30CFF3E031DAA2C0130B602031DD4
:10096800912C3308A0003408A1003508A2003208F1
:10097800AE002E08A3003708AF002F08A4000A1203
:100988008A114B27831203132008A8002108A90005
:100998002208AA000800831203133608B900370892
:1009A800BA003808BB0003103A0D3B0DBC003C08E8
:1009B800C1004108031DE72C0030B3000030B4002B
:1009C8000030B50008003308B9003408BA0035080B
:1009D800BB0003103A0D3B0DBC003C08C2004208A6
:1009E800031DFD2C0030B3000030B4000030B5000A
:1009F80008000030BE000030BF000030C000893061
:100A08004207B9003908C1023608B9003708BA00E8
:100A18003808BB0010300310BB0CBA0CB90CFF3EF1
:100A2800031D0F2D3908BC003C08C2003308B9006B
:100A38003408BA003508BB0010300310BB0CBA0CE0
:100A4800B90CFF3E031D212D3908BC003C08C20625
:100A58008030B9003908C205B717FF30B605FF3036
:100A6800B7050030B805B417FF30B305FF30B4053B
:100A78000030B5051830B9003908BD000130031041
:100A8800BE0DBF0DC00DFF3E031D432D35083802B6
:100A9800031D542D34083702031D542D3308360224
:100AA800031C612D3308B6023408031C340FB70247
:100AB8003508031C350AB8023E1401300310B60D80
:100AC800B70DB80DFF3E031D622D0130BD02031D99
:100AD800422D3E08A0003F08A1004008A20041089E
:100AE800B9003908A3004208BA003A08A4000A125B
:100AF8008A114B27831203132008B3002108B4007E
:100B08002208B500080083120313AE01AE0AA71F1E
:100B18008F2DAE01AE032E08A000A101A01BA103DA
:100B28002708A3002608A2000A128A15AD250A1272
:100B38008A11831203132108B0002008AF00AD0109
:100B4800AC01AB0103303002E83003192F02031C5B
:100B5800C62D2F08183EAF0030080318013EFC3E92
:100B6800B0000130AA002A08AD07A62D2F089C3E28
:100B7800AF0030080318013EFF3EB0000130AA0064
:100B88002A08AC0700303002643003192F02031C16
:100B9800DA2DBA2D2F08F63EAF0030080318013EB3
:100BA800FF3EB0000130AA002A08AB07003030022F
:100BB8000A3003192F020318CE2D2E0A031DE92D22
:100BC80029080319E92D2D30F22D831203132E0362
:100BD800031DF72D29080319F72D2B300A128A1542
:100BE80005250A128A110430831203132802031CF4
:100BF800042E2D08303E0A128A1505250A128A117C
:100C08000330831203132802031C112E2C08303ED4
:100C18000A128A1505250A128A1102308312031353
:100C28002802031C1E2E2B08303E0A128A150525A1
:100C38000A128A11831203132F08303E0A128A15EA
:100C48000525080083120313B400B50134083502E2
:100C58000318080007307706031D3D2E3103031DD6
:100C68003D2E831603133908831203138700F701F7
:100C7800752E7708031D4E2E3108031D4E2E831640
:100C8800031347088312031387000730B2003208A2
:100C9800F700752EF71B742E7708803A783E0318F4
:100CA800742E3103031D632E7708B2003207023E0B
:100CB800B93E84008313000887000130702E310884
:100CC800031D752E7708B2003207FE3EB93E840038
:100CD800831300088700FF30B2003208F707752E2B
:100CE800870140300A128A15A8240A128A1108308E
:100CF8000A128A158D250A128A11831203133103E9
:100D0800031D8E2E013083160313D3070318D40A4C
:100D18000030952EFF3083160313D3070318D40A27
:100D2800FF30D407540883120313A7008316031354
:100D3800530883120313A6000430B2003208A80037
:100D4800A901A90A0A128A1187250A128A11823072
:100D580083120313B300DD30B200B20BB12EB30B14
:100D6800B12EB62E013083120313B2003208B50734
:100D78002A2E831203134308C7004408C8004508F5
:100D8800C9000310480D490DCA004A08D000500890
:100D9800031DD72E0030C6000030C5000030C40047
:100DA8000030C30008004308C7004408C8004508CD
:100DB800C90017300310C90CC80CC70CFF3E031D2F
:100DC800DE2E4708CA004A08CB00C417FF30C30507
:100DD800FF30C4050030C5054308CC004408CD00E9
:100DE8004508CE00CF018E30D002D01F192F5008F1
:100DF800803A8F3E0318092F0030C6000030C50026
:100E08000030C4000030C300080001300310CF0CCC
:100E1800CE0CCD0CCC0CFF3E031D0A2F0130C700B1
:100E28004708D0070319342F092F18305002031C24
:100E3800312F0030C6000030C5000030C40000303B
:100E4800C30008000130C7000310CC0DCD0DCE0D36
:100E5800CF0DC70B282F0130D0025008031D262FB5
:100E68004B080319422FCC09CD09CE09CF09CC0A6A
:100E78000319CD0A0319CE0A0319CF0A4F08C60071
:100E88004E08C5004D08C4004C08C3000800831272
:100E9800031323080319552F220821042004031DD6
:100EA800682F0030A0000030A1000030A200080028
:100EB8000130A5002508A30701300310A20CA10CDE
:100EC800A00CFF3E031D612FFE3022050319832F5E
:100ED8005C2F0130A5002508A3070130A0070030CA
:100EE80003180130A107003003180130A2070130B0
:100EF8000310A20CA10CA00CFF3E031D7C2FFF3099
:100F080022050319922F6D2F0130A302013003101F
:100F1800A00DA10DA20DFF3E031D8B2FA11B982F25
:100F2800023023020318882F2318A02FFF30A005B2
:100F38007F30A105FF30A2050310A30C2308A500EC
:100F4800A601A70110300310A50DA60DA70DFF3EA1
:100F5800031DA72F2508A0042608A1042708A2041A
:100F6800240803190800A217080083120313AF010D
:100F78008E30AC002C08AE00AB1FCF2FA809A909F2
:100F8800AA09AB09A80A0319A90A0319AA0A031985
:100F9800AB0AAF01AF0AFF302B050319E12F01306F
:100FA8000310AB0CAA0CA90CA80CFF3E031DD42FF0
:100FB8000130AC002C08AE07CF2F2808A000290864
:100FC800A1002A08A2002E08AC002C08A3002F08B4
:100FD800AD002D08A4000A128A114B2783120313AF
:0E0FE8002008A8002108A9002208AA0008007D
:1010000008308A000408840A820700345334743498
:101010006534703473343A34003473347434653462
:10102000703473343A3400345234613477343A349F
:0E10300000343D343E34003463346D340034FB
:1019500083120313A300A31723080A128A1518255C
:1019600008008312031332083104300403190800FD
:101970008030B20608000130F200720883160313AB
:10198000D70732305706031D08007115D70108002C
:10199000073083120313A1007D30A000A00BCE2CD2
:1019A000A10BCE2C831203131F1508006430831281
:1019B0000313810083160313811201128111011098
:1019C000811001158B168B170800831203131E0854
:1019D000A300831603131E0883120313A200230817
:1019E000A1002208A00008007E088A007F0882006B
:1019F000F4240A128A158000840A04087D0603195B
:101A00000034FF0A0319FE0AF82C83120313A20004
:101A100009118910091422088800091509110730D5
:101A2000A1007D30A000A00B132DA10B132D0800E9
:101A300083120313A20009118910091022088800DB
:101A4000091509110D30A100FB30A000A00B262DB7
:101A5000A10B262D2B2D0800FF30831603138500C4
:101A60009F171F139F111F119F141F148130831282
:101A700003139F000C13831603130C170B178B17FC
:101A80000800013083160313D5070318D60A003067
:101A9000D607F4305506031D08005603031D080041
:101AA000203083120313860683160313D501D60153
:101AB00008003C3400342E3400342B3400342734F6
:101AC000003435340034173400341B3400341E34F1
:101AD00000343C3400342B340034353400341B34AF
:101AE00000340F308316031386008701831203131B
:101AF000061686160A128A15D6240A128A150A12A2
:101B00008A152C250A128A150A128A1542260A12EB
:101B10008A150A128A151A26080083120313A400D4
:101B2000240884000A128A1500200A128A15003A35
:101B300003190800240884000A128A1500200A12DA
:101B40008A150A128A1505250A128A150130831290
:101B50000313A3002308A407902D83120313A401E9
:101B6000A501201CB92D2208A4070318A50A2308E3
:101B7000A50701300310A20DA30DFF3E031DBA2DD2
:101B800001300310A10CA00CFF3E031DC12D200845
:101B90002104031DB12D2508A1002408A000080080
:101BA0000B1DE42D0B11643081000A128A154125AA
:101BB0000A128A150A128A15F3260A128A150A12BF
:101BC0008A15BB240A128A15831203130C1FEA2DEF
:101BD00070140C137608FF0075088A0074088400DE
:101BE000730E8300FE0E7E0E090083120313AD01F7
:101BF000A91F012EA809A909A80A0319A90AAD015C
:101C0000AD0A2808A0002908A100A2018E30AB006F
:101C10002B08A3002D08AC002C08A4000A128A117E
:101C20004B27831203132008A8002108A9002208CB
:101C3000AA000800831603133908831203138700D0
:101C400040300A128A15A8240A128A1501300A1295
:101C50008A158D250A128A158316031354088312D8
:101C60000313A70083160313530883120313A6005C
:101C70000430B1003108A800A901A90A0A128A118A
:101C80008725080083120313880189018316031333
:101C90008801890101300A128A1518250A128A154D
:101CA00038300A128A1518250A128A150C300A12C1
:101CB0008A1518250A128A1506300A128A1518255F
:101CC0000A128A1502300A128A1518250A128A1574
:101CD00001300A128A1518250800831203132208FE
:101CE00021042004031D7B2E23088400831380011C
:101CF000840A8001080022087F39A400A50103108E
:101D0000A40DA50D23088400240883138000840AF1
:101D100025088000210D210D0139A400A50123080B
:101D2000840024088004840A250880042308840091
:101D300082308007840F00080318000AFF00FF307C
:101D40007F0780008403220880393F38A200A11356
:101D50000800831203135108A0005208A100530881
:101D6000A2005830D4005408A3000A128A156D2628
:101D70000A128A1583120313D91FC52E0030D10011
:101D80000030D2000030D300080000305902153076
:101D900003195802031808005108C3005208C40070
:101DA0005308C5000A128A11BD260A128A15831229
:101DB00003134608AB004508AA004408A9004308DD
:101DC000A8000A128A11B927831203132808D50024
:101DD0002908D6002A08D7005508D1005608D20095
:101DE0005708D3000800831203130618032F01308D
:101DF000F2007208F8070B3078020318F01D052F67
:101E00007015F011052FF801F0158618132F013009
:101E1000F2007208F9070B3079020318F01E152F33
:101E20007016F012152FF901F0160619252F013042
:101E3000F200720883160313D8070B3058020318F8
:101E4000F01F292F7017F013292F83160313D801C1
:101E5000F0178312031386193C2F0130F200720829
:101E600083160313D9070B305902031C0800F11C19
:101E700008007114F110080083160313D901F1143E
:101E8000080083120313A21F6A2F0030A60000303F
:101E9000A7008030A8002009A9002109AA00220972
:101EA000AB00A90A0319AA0A0319AB0A2908A60755
:101EB0002A0803182A0F5D2F5E2FA7072B08031887
:101EC0002B0F632F642FA8072608A0002708A10066
:101ED0002808A200A51F912F0030A6000030A700FF
:101EE0008030A8002309A9002409AA002509AB0015
:101EF000A90A0319AA0A0319AB0A2908A6072A087E
:101F000003182A0F842F852FA7072B0803182B0FE0
:101F10008A2F8B2FA8072608A3002708A4002808CB
:101F2000A5008030A2068030A50625082202031DE8
:101F3000080024082102031D0800230820020800CD
:101F4000831203136708DA006808DB006908DC0005
:101F50006708D1006808D2006908D3000A128A1500
:101F6000A9260A128A15831203135108B0005208D9
:101F7000B1005308B2000A128A15B1240A128A1558
:101F8000831203133008DD003108DE003208DF0061
:101F90000A128A1135200A128A15831203135A086D
:101FA000EA005B08EB005C08EC006A08DA006B08EA
:101FB000DB006C08DC006708DD006808DE006908EB
:101FC000DF000A128A1135200A128A1583120313C0
:101FD0005A08E7005B08E8005C08E9006708D100E0
:101FE0006808D2006908D3000A128A15A92683124C
:101FF00003135108E7005208E8005308E9000800FD
:02400E003A3F37
:00000001FF
