:060000000A128A11122809
:10000800FE00030EF1000408F2000A08F300831250
:1000180003137F08F4000A128A111C280A128A1195
:100028001528F501F601F70183010A128A116128E2
:100038000B1D41280B116430810086182F280130D0
:10004800F0007008F6070B3076020318F51C31280B
:100058007514F5103128F601F51486193F2801307A
:10006800F0007008F7070B3077020318F51D4128D8
:100078007515F5114128F701F5157408FF00730887
:100088008A0072088400710E8300FE0E7E0E09003D
:100098000A30831603138600831203130614861589
:1000A800643081008316031381120112811101103B
:1000B800811001158B168B1708000A128A114C2023
:1000C8000A128A11751C6D280130831203138606E3
:1000D8007510751D66280430831203138606751182
:0200E800662888
:02400E003A3F37
:00000001FF
