:060000000A128A11122809
:10000800FE00030EF6000408F7000A08F800831241
:1000180003137F08F9000A128A1188280A128A1124
:100028001528FC01FA01FB0183010A128A111C2818
:1000380083120313A301A101A2010A128A11B42099
:100048000A128A1183120313061A3428210822047B
:10005800031D3428083086060130A1000030A200B4
:100068007C1C2628A101A2010130A0002008A307BA
:1000780049280610861442280614861006155428A6
:10008800061486140611A30154282308013A0319FB
:100098003D28033A03194028013A031944285428F3
:1000A8007C1026287008710403198328F501F50AC5
:1000B800F11B6A2801300310F00DF10DFF3E031DFE
:1000C8005F280130F4007408F5075C287108730292
:1000D800031D702870087202031C78287008F20249
:1000E8007108031CF303F30201300310F10CF00C48
:1000F800FF3E031D79280130F502031D6A287308A5
:10010800F1007208F00008000B1DA7280B116430DD
:1001180081000130FA070318FB0A0030FB07FA30A8
:10012800F0000030F1007B08F3007A08F2000A12B0
:100138008A1156200A128A1170087104031DA72813
:10014800FA01FB017C14790883120313FF00780875
:100158008A0077088400760E8300FE0E7E0E090062
:10016800F0308316031386008312031306148614D3
:100178000615643081008316031381120112811160
:0C0188000110811001158B168B17080068
:02400E003A3F37
:00000001FF
