:060000000A128A11122809
:10000800FE00030EF1000408F2000A08F300831250
:1000180003137F08F4000A128A116A280A128A1147
:100028001528F901FA01FB01FC0183010A128A1162
:100038009A28F700F8014B282E302D282B302D2830
:1000480027302D2835302D2817302D281B302D2806
:100058001E308312031387000130F5007508FA0774
:100068003E283C30831203138700FA013E2883128E
:10007800031387018230F600DD30F500F50B4228C6
:10008800F60B422847280130F5007508F80777086D
:100098007802031808007A08003A03192028013A60
:1000A80003192228033A03192428013A0319262898
:1000B800073A03192828013A03192A28033A031989
:1000C8002C28013A031935283B283E280B1D8F2878
:1000D8000B116430810086187D280130F00070080B
:1000E800FB070B307B020318F91C7F287914F910E1
:1000F8007F28FB01F91486198D280130F00070085B
:10010800FC070B307C020318F91D8F287915F911AB
:100118008F28FC01F9157408FF0073088A0072081B
:100128008400710E8300FE0E7E0E09000A128A11E9
:10013800BA200A128A11791CAC28013083120313E1
:10014800860614300A128A111D200A128A117910A3
:10015800791D9F28043083120313860628300A125B
:100168008A111D200A128A1179119F280A308316D4
:1001780003138600870183120313061406156430DF
:10018800810083160313811201128111011081105D
:0801980001158B168B170800FE
:02400E003A3F37
:00000001FF
